{
  "_format": "hh-sol-artifact-1",
  "contractName": "WavePortal",
  "sourceName": "contracts/WavePortal.sol",
  "abi": [
    {
      "inputs": [],
      "stateMutability": "payable",
      "type": "constructor"
    },
    {
      "anonymous": false,
      "inputs": [
        {
          "indexed": true,
          "internalType": "address",
          "name": "from",
          "type": "address"
        },
        {
          "indexed": false,
          "internalType": "uint256",
          "name": "timestamp",
          "type": "uint256"
        },
        {
          "indexed": false,
          "internalType": "string",
          "name": "message",
          "type": "string"
        },
        {
          "indexed": false,
          "internalType": "address",
          "name": "to",
          "type": "address"
        }
      ],
      "name": "NewWave",
      "type": "event"
    },
    {
      "inputs": [],
      "name": "getAllWaves",
      "outputs": [
        {
          "components": [
            {
              "internalType": "address",
              "name": "waver",
              "type": "address"
            },
            {
              "internalType": "uint256",
              "name": "timestamp",
              "type": "uint256"
            },
            {
              "internalType": "string",
              "name": "message",
              "type": "string"
            },
            {
              "internalType": "address",
              "name": "to",
              "type": "address"
            }
          ],
          "internalType": "struct WavePortal.Wave[]",
          "name": "",
          "type": "tuple[]"
        }
      ],
      "stateMutability": "view",
      "type": "function"
    },
    {
      "inputs": [],
      "name": "getTotalWaves",
      "outputs": [
        {
          "internalType": "uint256",
          "name": "",
          "type": "uint256"
        }
      ],
      "stateMutability": "view",
      "type": "function"
    },
    {
      "inputs": [
        {
          "internalType": "address",
          "name": "",
          "type": "address"
        }
      ],
      "name": "lastWavedAt",
      "outputs": [
        {
          "internalType": "uint256",
          "name": "",
          "type": "uint256"
        }
      ],
      "stateMutability": "view",
      "type": "function"
    },
    {
      "inputs": [
        {
          "internalType": "string",
          "name": "_message",
          "type": "string"
        },
        {
          "internalType": "address",
          "name": "_to",
          "type": "address"
        }
      ],
      "name": "wave",
      "outputs": [],
      "stateMutability": "nonpayable",
      "type": "function"
    }
  ],
  "bytecode": "0x6080604052610aa9806100136000396000f3fe608060405234801561001057600080fd5b506004361061004c5760003560e01c806343d29adb146100515780639a2cdc081461006d578063a42a46631461008b578063bd43a908146100bb575b600080fd5b61006b60048036038101906100669190610588565b6100d9565b005b610075610277565b6040516100829190610798565b60405180910390f35b6100a560048036038101906100a0919061055f565b610280565b6040516100b29190610798565b60405180910390f35b6100c3610298565b6040516100d09190610776565b60405180910390f35b60016000808282546100eb91906108b8565b92505081905550600160405180608001604052803373ffffffffffffffffffffffffffffffffffffffff1681526020014281526020018481526020018373ffffffffffffffffffffffffffffffffffffffff16815250908060018154018082558091505060019003906000526020600020906004020160009091909190915060008201518160000160006101000a81548173ffffffffffffffffffffffffffffffffffffffff021916908373ffffffffffffffffffffffffffffffffffffffff1602179055506020820151816001015560408201518160020190805190602001906101d792919061043f565b5060608201518160030160006101000a81548173ffffffffffffffffffffffffffffffffffffffff021916908373ffffffffffffffffffffffffffffffffffffffff16021790555050503373ffffffffffffffffffffffffffffffffffffffff167ff1d4911300dd003ba273b7b0f26e29fea5d91d2f392dc2cad7f6361e18bca5c942848460405161026b939291906107b3565b60405180910390a25050565b60008054905090565b60026020528060005260406000206000915090505481565b60606001805480602002602001604051908101604052809291908181526020016000905b8282101561043657838290600052602060002090600402016040518060800160405290816000820160009054906101000a900473ffffffffffffffffffffffffffffffffffffffff1673ffffffffffffffffffffffffffffffffffffffff1673ffffffffffffffffffffffffffffffffffffffff1681526020016001820154815260200160028201805461034f9061098c565b80601f016020809104026020016040519081016040528092919081815260200182805461037b9061098c565b80156103c85780601f1061039d576101008083540402835291602001916103c8565b820191906000526020600020905b8154815290600101906020018083116103ab57829003601f168201915b505050505081526020016003820160009054906101000a900473ffffffffffffffffffffffffffffffffffffffff1673ffffffffffffffffffffffffffffffffffffffff1673ffffffffffffffffffffffffffffffffffffffff1681525050815260200190600101906102bc565b50505050905090565b82805461044b9061098c565b90600052602060002090601f01602090048101928261046d57600085556104b4565b82601f1061048657805160ff19168380011785556104b4565b828001600101855582156104b4579182015b828111156104b3578251825591602001919060010190610498565b5b5090506104c191906104c5565b5090565b5b808211156104de5760008160009055506001016104c6565b5090565b60006104f56104f084610822565b6107f1565b90508281526020810184848401111561050d57600080fd5b61051884828561094a565b509392505050565b60008135905061052f81610a5c565b92915050565b600082601f83011261054657600080fd5b81356105568482602086016104e2565b91505092915050565b60006020828403121561057157600080fd5b600061057f84828501610520565b91505092915050565b6000806040838503121561059b57600080fd5b600083013567ffffffffffffffff8111156105b557600080fd5b6105c185828601610535565b92505060206105d285828601610520565b9150509250929050565b60006105e883836106f5565b905092915050565b6105f98161090e565b82525050565b6106088161090e565b82525050565b600061061982610862565b6106238185610885565b93508360208202850161063585610852565b8060005b85811015610671578484038952815161065285826105dc565b945061065d83610878565b925060208a01995050600181019050610639565b50829750879550505050505092915050565b600061068e8261086d565b6106988185610896565b93506106a8818560208601610959565b6106b181610a4b565b840191505092915050565b60006106c78261086d565b6106d181856108a7565b93506106e1818560208601610959565b6106ea81610a4b565b840191505092915050565b600060808301600083015161070d60008601826105f0565b5060208301516107206020860182610758565b50604083015184820360408601526107388282610683565b915050606083015161074d60608601826105f0565b508091505092915050565b61076181610940565b82525050565b61077081610940565b82525050565b60006020820190508181036000830152610790818461060e565b905092915050565b60006020820190506107ad6000830184610767565b92915050565b60006060820190506107c86000830186610767565b81810360208301526107da81856106bc565b90506107e960408301846105ff565b949350505050565b6000604051905081810181811067ffffffffffffffff8211171561081857610817610a1c565b5b8060405250919050565b600067ffffffffffffffff82111561083d5761083c610a1c565b5b601f19601f8301169050602081019050919050565b6000819050602082019050919050565b600081519050919050565b600081519050919050565b6000602082019050919050565b600082825260208201905092915050565b600082825260208201905092915050565b600082825260208201905092915050565b60006108c382610940565b91506108ce83610940565b9250827fffffffffffffffffffffffffffffffffffffffffffffffffffffffffffffffff03821115610903576109026109be565b5b828201905092915050565b600061091982610920565b9050919050565b600073ffffffffffffffffffffffffffffffffffffffff82169050919050565b6000819050919050565b82818337600083830152505050565b60005b8381101561097757808201518184015260208101905061095c565b83811115610986576000848401525b50505050565b600060028204905060018216806109a457607f821691505b602082108114156109b8576109b76109ed565b5b50919050565b7f4e487b7100000000000000000000000000000000000000000000000000000000600052601160045260246000fd5b7f4e487b7100000000000000000000000000000000000000000000000000000000600052602260045260246000fd5b7f4e487b7100000000000000000000000000000000000000000000000000000000600052604160045260246000fd5b6000601f19601f8301169050919050565b610a658161090e565b8114610a7057600080fd5b5056fea26469706673582212205c809250884e333698828cb7b4c0088c1808f8cdb996f3bc5b681b5e2ea39f9164736f6c63430008000033",
  "linkReferences": {},
  "deployedLinkReferences": {}
}