{
    "_format": "hh-sol-artifact-1",
    "contractName": "MyEpicNFT",
    "sourceName": "contracts/MyEpicNFT.sol",
    "abi": [
        {
            "inputs": [],
            "stateMutability": "nonpayable",
            "type": "constructor"
        },
        {
            "anonymous": false,
            "inputs": [
                {
                    "indexed": true,
                    "internalType": "address",
                    "name": "owner",
                    "type": "address"
                },
                {
                    "indexed": true,
                    "internalType": "address",
                    "name": "approved",
                    "type": "address"
                },
                {
                    "indexed": true,
                    "internalType": "uint256",
                    "name": "tokenId",
                    "type": "uint256"
                }
            ],
            "name": "Approval",
            "type": "event"
        },
        {
            "anonymous": false,
            "inputs": [
                {
                    "indexed": true,
                    "internalType": "address",
                    "name": "owner",
                    "type": "address"
                },
                {
                    "indexed": true,
                    "internalType": "address",
                    "name": "operator",
                    "type": "address"
                },
                {
                    "indexed": false,
                    "internalType": "bool",
                    "name": "approved",
                    "type": "bool"
                }
            ],
            "name": "ApprovalForAll",
            "type": "event"
        },
        {
            "anonymous": false,
            "inputs": [
                {
                    "indexed": false,
                    "internalType": "address",
                    "name": "sender",
                    "type": "address"
                },
                {
                    "indexed": false,
                    "internalType": "uint256",
                    "name": "tokenId",
                    "type": "uint256"
                }
            ],
            "name": "NewEpicNFTMinted",
            "type": "event"
        },
        {
            "anonymous": false,
            "inputs": [
                {
                    "indexed": true,
                    "internalType": "address",
                    "name": "from",
                    "type": "address"
                },
                {
                    "indexed": true,
                    "internalType": "address",
                    "name": "to",
                    "type": "address"
                },
                {
                    "indexed": true,
                    "internalType": "uint256",
                    "name": "tokenId",
                    "type": "uint256"
                }
            ],
            "name": "Transfer",
            "type": "event"
        },
        {
            "inputs": [
                {
                    "internalType": "address",
                    "name": "to",
                    "type": "address"
                },
                {
                    "internalType": "uint256",
                    "name": "tokenId",
                    "type": "uint256"
                }
            ],
            "name": "approve",
            "outputs": [],
            "stateMutability": "nonpayable",
            "type": "function"
        },
        {
            "inputs": [
                {
                    "internalType": "address",
                    "name": "owner",
                    "type": "address"
                }
            ],
            "name": "balanceOf",
            "outputs": [
                {
                    "internalType": "uint256",
                    "name": "",
                    "type": "uint256"
                }
            ],
            "stateMutability": "view",
            "type": "function"
        },
        {
            "inputs": [
                {
                    "internalType": "uint256",
                    "name": "tokenId",
                    "type": "uint256"
                }
            ],
            "name": "getApproved",
            "outputs": [
                {
                    "internalType": "address",
                    "name": "",
                    "type": "address"
                }
            ],
            "stateMutability": "view",
            "type": "function"
        },
        {
            "inputs": [],
            "name": "getTotalNFTsMintedSoFar",
            "outputs": [
                {
                    "internalType": "uint256",
                    "name": "",
                    "type": "uint256"
                }
            ],
            "stateMutability": "view",
            "type": "function"
        },
        {
            "inputs": [
                {
                    "internalType": "address",
                    "name": "owner",
                    "type": "address"
                },
                {
                    "internalType": "address",
                    "name": "operator",
                    "type": "address"
                }
            ],
            "name": "isApprovedForAll",
            "outputs": [
                {
                    "internalType": "bool",
                    "name": "",
                    "type": "bool"
                }
            ],
            "stateMutability": "view",
            "type": "function"
        },
        {
            "inputs": [],
            "name": "makeNFT",
            "outputs": [],
            "stateMutability": "nonpayable",
            "type": "function"
        },
        {
            "inputs": [],
            "name": "name",
            "outputs": [
                {
                    "internalType": "string",
                    "name": "",
                    "type": "string"
                }
            ],
            "stateMutability": "view",
            "type": "function"
        },
        {
            "inputs": [
                {
                    "internalType": "uint256",
                    "name": "tokenId",
                    "type": "uint256"
                }
            ],
            "name": "ownerOf",
            "outputs": [
                {
                    "internalType": "address",
                    "name": "",
                    "type": "address"
                }
            ],
            "stateMutability": "view",
            "type": "function"
        },
        {
            "inputs": [
                {
                    "internalType": "uint256",
                    "name": "tokenId",
                    "type": "uint256"
                }
            ],
            "name": "pickRandomColor",
            "outputs": [
                {
                    "internalType": "string",
                    "name": "",
                    "type": "string"
                }
            ],
            "stateMutability": "view",
            "type": "function"
        },
        {
            "inputs": [
                {
                    "internalType": "uint256",
                    "name": "tokenId",
                    "type": "uint256"
                }
            ],
            "name": "pickRandomFirstWord",
            "outputs": [
                {
                    "internalType": "string",
                    "name": "",
                    "type": "string"
                }
            ],
            "stateMutability": "view",
            "type": "function"
        },
        {
            "inputs": [
                {
                    "internalType": "uint256",
                    "name": "tokenId",
                    "type": "uint256"
                }
            ],
            "name": "pickRandomSecondWord",
            "outputs": [
                {
                    "internalType": "string",
                    "name": "",
                    "type": "string"
                }
            ],
            "stateMutability": "view",
            "type": "function"
        },
        {
            "inputs": [
                {
                    "internalType": "uint256",
                    "name": "tokenId",
                    "type": "uint256"
                }
            ],
            "name": "pickRandomThirdWord",
            "outputs": [
                {
                    "internalType": "string",
                    "name": "",
                    "type": "string"
                }
            ],
            "stateMutability": "view",
            "type": "function"
        },
        {
            "inputs": [
                {
                    "internalType": "address",
                    "name": "from",
                    "type": "address"
                },
                {
                    "internalType": "address",
                    "name": "to",
                    "type": "address"
                },
                {
                    "internalType": "uint256",
                    "name": "tokenId",
                    "type": "uint256"
                }
            ],
            "name": "safeTransferFrom",
            "outputs": [],
            "stateMutability": "nonpayable",
            "type": "function"
        },
        {
            "inputs": [
                {
                    "internalType": "address",
                    "name": "from",
                    "type": "address"
                },
                {
                    "internalType": "address",
                    "name": "to",
                    "type": "address"
                },
                {
                    "internalType": "uint256",
                    "name": "tokenId",
                    "type": "uint256"
                },
                {
                    "internalType": "bytes",
                    "name": "_data",
                    "type": "bytes"
                }
            ],
            "name": "safeTransferFrom",
            "outputs": [],
            "stateMutability": "nonpayable",
            "type": "function"
        },
        {
            "inputs": [
                {
                    "internalType": "address",
                    "name": "operator",
                    "type": "address"
                },
                {
                    "internalType": "bool",
                    "name": "approved",
                    "type": "bool"
                }
            ],
            "name": "setApprovalForAll",
            "outputs": [],
            "stateMutability": "nonpayable",
            "type": "function"
        },
        {
            "inputs": [
                {
                    "internalType": "bytes4",
                    "name": "interfaceId",
                    "type": "bytes4"
                }
            ],
            "name": "supportsInterface",
            "outputs": [
                {
                    "internalType": "bool",
                    "name": "",
                    "type": "bool"
                }
            ],
            "stateMutability": "view",
            "type": "function"
        },
        {
            "inputs": [],
            "name": "symbol",
            "outputs": [
                {
                    "internalType": "string",
                    "name": "",
                    "type": "string"
                }
            ],
            "stateMutability": "view",
            "type": "function"
        },
        {
            "inputs": [
                {
                    "internalType": "uint256",
                    "name": "tokenId",
                    "type": "uint256"
                }
            ],
            "name": "tokenURI",
            "outputs": [
                {
                    "internalType": "string",
                    "name": "",
                    "type": "string"
                }
            ],
            "stateMutability": "view",
            "type": "function"
        },
        {
            "inputs": [
                {
                    "internalType": "address",
                    "name": "from",
                    "type": "address"
                },
                {
                    "internalType": "address",
                    "name": "to",
                    "type": "address"
                },
                {
                    "internalType": "uint256",
                    "name": "tokenId",
                    "type": "uint256"
                }
            ],
            "name": "transferFrom",
            "outputs": [],
            "stateMutability": "nonpayable",
            "type": "function"
        }
    ],
    "bytecode": "0x608060405260405180610100016040528060d38152602001620046d060d3913960089080519060200190620000369291906200082c565b50604051806080016040528060568152602001620047a36056913960099080519060200190620000689291906200082c565b506040518060c001604052806040518060400160405280600181526020017f590000000000000000000000000000000000000000000000000000000000000081525081526020016040518060400160405280600281526020017f594f00000000000000000000000000000000000000000000000000000000000081525081526020016040518060400160405280600381526020017f594f55000000000000000000000000000000000000000000000000000000000081525081526020016040518060400160405280600481526020017f594f55520000000000000000000000000000000000000000000000000000000081525081526020016040518060400160405280600581526020017f594f55525f00000000000000000000000000000000000000000000000000000081525081526020016040518060400160405280600681526020017f594f55525f570000000000000000000000000000000000000000000000000000815250815250600a906006620001e6929190620008bd565b506040518060c001604052806040518060400160405280600781526020017f594f55525f574f0000000000000000000000000000000000000000000000000081525081526020016040518060400160405280600881526020017f594f55525f574f5200000000000000000000000000000000000000000000000081525081526020016040518060400160405280600981526020017f594f55525f574f5244000000000000000000000000000000000000000000000081525081526020016040518060400160405280600181526020017f4f0000000000000000000000000000000000000000000000000000000000000081525081526020016040518060400160405280600181526020017f550000000000000000000000000000000000000000000000000000000000000081525081526020016040518060400160405280600181526020017f5200000000000000000000000000000000000000000000000000000000000000815250815250600b90600662000364929190620008bd565b506040518060c001604052806040518060400160405280600181526020017f570000000000000000000000000000000000000000000000000000000000000081525081526020016040518060400160405280600181526020017f4f0000000000000000000000000000000000000000000000000000000000000081525081526020016040518060400160405280600181526020017f520000000000000000000000000000000000000000000000000000000000000081525081526020016040518060400160405280600181526020017f440000000000000000000000000000000000000000000000000000000000000081525081526020016040518060400160405280600281526020017f595200000000000000000000000000000000000000000000000000000000000081525081526020016040518060400160405280600281526020017f5744000000000000000000000000000000000000000000000000000000000000815250815250600c906006620004e2929190620008bd565b506040518060c001604052806040518060400160405280600781526020017f234230424631410000000000000000000000000000000000000000000000000081525081526020016040518060400160405280600781526020017f234232383442450000000000000000000000000000000000000000000000000081525081526020016040518060400160405280600781526020017f234544454145300000000000000000000000000000000000000000000000000081525081526020016040518060400160405280600781526020017f234334363231300000000000000000000000000000000000000000000000000081525081526020016040518060400160405280600781526020017f233342374135370000000000000000000000000000000000000000000000000081525081526020016040518060400160405280600781526020017f2345394436364200000000000000000000000000000000000000000000000000815250815250600d90600662000660929190620008bd565b503480156200066e57600080fd5b506040518060400160405280600981526020017f596f75725f576f726400000000000000000000000000000000000000000000008152506040518060400160405280600281526020017f59570000000000000000000000000000000000000000000000000000000000008152508160009080519060200190620006f39291906200082c565b5080600190805190602001906200070c9291906200082c565b5050506200075a6040518060400160405280601e81526020017f54686973206973206d79204e465420636f6e74726163742e2057686f612100008152506200076060201b620012d21760201c565b62000ade565b6200080081604051602401620007779190620009f2565b6040516020818303038152906040527f41304fac000000000000000000000000000000000000000000000000000000007bffffffffffffffffffffffffffffffffffffffffffffffffffffffff19166020820180517bffffffffffffffffffffffffffffffffffffffffffffffffffffffff83818316178352505050506200080360201b60201c565b50565b60008151905060006a636f6e736f6c652e6c6f679050602083016000808483855afa5050505050565b8280546200083a9062000a68565b90600052602060002090601f0160209004810192826200085e5760008555620008aa565b82601f106200087957805160ff1916838001178555620008aa565b82800160010185558215620008aa579182015b82811115620008a95782518255916020019190600101906200088c565b5b509050620008b9919062000924565b5090565b82805482825590600052602060002090810192821562000911579160200282015b8281111562000910578251829080519060200190620008ff9291906200082c565b5091602001919060010190620008de565b5b50905062000920919062000943565b5090565b5b808211156200093f57600081600090555060010162000925565b5090565b5b808211156200096757600081816200095d91906200096b565b5060010162000944565b5090565b508054620009799062000a68565b6000825580601f106200098d5750620009ae565b601f016020900490600052602060002090810190620009ad919062000924565b5b50565b6000620009be8262000a16565b620009ca818562000a21565b9350620009dc81856020860162000a32565b620009e78162000acd565b840191505092915050565b6000602082019050818103600083015262000a0e8184620009b1565b905092915050565b600081519050919050565b600082825260208201905092915050565b60005b8381101562000a5257808201518184015260208101905062000a35565b8381111562000a62576000848401525b50505050565b6000600282049050600182168062000a8157607f821691505b6020821081141562000a985762000a9762000a9e565b5b50919050565b7f4e487b7100000000000000000000000000000000000000000000000000000000600052602260045260246000fd5b6000601f19601f8301169050919050565b613be28062000aee6000396000f3fe608060405234801561001057600080fd5b50600436106101215760003560e01c80636352211e116100ad578063b187301f11610071578063b187301f1461031a578063b88d4fde1461034a578063c575757a14610366578063c87b56dd14610396578063e985e9c5146103c657610121565b80636352211e1461027657806370a08231146102a657806395d89b41146102d6578063a22cb465146102f4578063b036b4bd1461031057610121565b8063095ea7b3116100f4578063095ea7b3146101c257806323b872dd146101de5780632de38d68146101fa57806342842e0e1461022a578063514dc8c61461024657610121565b806301ffc9a714610126578063060475901461015657806306fdde0314610174578063081812fc14610192575b600080fd5b610140600480360381019061013b91906126d2565b6103f6565b60405161014d9190613438565b60405180910390f35b61015e6104d8565b60405161016b91906136d3565b60405180910390f35b61017c6104e9565b6040516101899190613453565b60405180910390f35b6101ac60048036038101906101a79190612724565b61057b565b6040516101b991906133a8565b60405180910390f35b6101dc60048036038101906101d79190612696565b610600565b005b6101f860048036038101906101f39190612590565b610718565b005b610214600480360381019061020f9190612724565b610778565b6040516102219190613453565b60405180910390f35b610244600480360381019061023f9190612590565b610896565b005b610260600480360381019061025b9190612724565b6108b6565b60405161026d9190613453565b60405180910390f35b610290600480360381019061028b9190612724565b6109d4565b60405161029d91906133a8565b60405180910390f35b6102c060048036038101906102bb919061252b565b610a86565b6040516102cd91906136d3565b60405180910390f35b6102de610b3e565b6040516102eb9190613453565b60405180910390f35b61030e6004803603810190610309919061265a565b610bd0565b005b610318610be6565b005b610334600480360381019061032f9190612724565b610e4e565b6040516103419190613453565b60405180910390f35b610364600480360381019061035f91906125df565b610f6c565b005b610380600480360381019061037b9190612724565b610fce565b60405161038d9190613453565b60405180910390f35b6103b060048036038101906103ab9190612724565b6110ec565b6040516103bd9190613453565b60405180910390f35b6103e060048036038101906103db9190612554565b61123e565b6040516103ed9190613438565b60405180910390f35b60007f80ac58cd000000000000000000000000000000000000000000000000000000007bffffffffffffffffffffffffffffffffffffffffffffffffffffffff1916827bffffffffffffffffffffffffffffffffffffffffffffffffffffffff191614806104c157507f5b5e139f000000000000000000000000000000000000000000000000000000007bffffffffffffffffffffffffffffffffffffffffffffffffffffffff1916827bffffffffffffffffffffffffffffffffffffffffffffffffffffffff1916145b806104d157506104d08261136b565b5b9050919050565b60006104e460076113d5565b905090565b6060600080546104f890613972565b80601f016020809104026020016040519081016040528092919081815260200182805461052490613972565b80156105715780601f1061054657610100808354040283529160200191610571565b820191906000526020600020905b81548152906001019060200180831161055457829003601f168201915b5050505050905090565b6000610586826113e3565b6105c5576040517f08c379a00000000000000000000000000000000000000000000000000000000081526004016105bc90613613565b60405180910390fd5b6004600083815260200190815260200160002060009054906101000a900473ffffffffffffffffffffffffffffffffffffffff169050919050565b600061060b826109d4565b90508073ffffffffffffffffffffffffffffffffffffffff168373ffffffffffffffffffffffffffffffffffffffff16141561067c576040517f08c379a000000000000000000000000000000000000000000000000000000000815260040161067390613673565b60405180910390fd5b8073ffffffffffffffffffffffffffffffffffffffff1661069b61144f565b73ffffffffffffffffffffffffffffffffffffffff1614806106ca57506106c9816106c461144f565b61123e565b5b610709576040517f08c379a000000000000000000000000000000000000000000000000000000000815260040161070090613553565b60405180910390fd5b6107138383611457565b505050565b61072961072361144f565b82611510565b610768576040517f08c379a000000000000000000000000000000000000000000000000000000000815260040161075f90613693565b60405180910390fd5b6107738383836115ee565b505050565b606060006107ac6107888461184a565b6040516020016107989190613342565b6040516020818303038152906040526119f7565b9050600a80549050816107bf91906139ed565b9050600a81815481106107fb577f4e487b7100000000000000000000000000000000000000000000000000000000600052603260045260246000fd5b90600052602060002001805461081090613972565b80601f016020809104026020016040519081016040528092919081815260200182805461083c90613972565b80156108895780601f1061085e57610100808354040283529160200191610889565b820191906000526020600020905b81548152906001019060200180831161086c57829003601f168201915b5050505050915050919050565b6108b183838360405180602001604052806000815250610f6c565b505050565b606060006108ea6108c68461184a565b6040516020016108d69190613386565b6040516020818303038152906040526119f7565b9050600d80549050816108fd91906139ed565b9050600d8181548110610939577f4e487b7100000000000000000000000000000000000000000000000000000000600052603260045260246000fd5b90600052602060002001805461094e90613972565b80601f016020809104026020016040519081016040528092919081815260200182805461097a90613972565b80156109c75780601f1061099c576101008083540402835291602001916109c7565b820191906000526020600020905b8154815290600101906020018083116109aa57829003601f168201915b5050505050915050919050565b6000806002600084815260200190815260200160002060009054906101000a900473ffffffffffffffffffffffffffffffffffffffff169050600073ffffffffffffffffffffffffffffffffffffffff168173ffffffffffffffffffffffffffffffffffffffff161415610a7d576040517f08c379a0000000000000000000000000000000000000000000000000000000008152600401610a7490613593565b60405180910390fd5b80915050919050565b60008073ffffffffffffffffffffffffffffffffffffffff168273ffffffffffffffffffffffffffffffffffffffff161415610af7576040517f08c379a0000000000000000000000000000000000000000000000000000000008152600401610aee90613573565b60405180910390fd5b600360008373ffffffffffffffffffffffffffffffffffffffff1673ffffffffffffffffffffffffffffffffffffffff168152602001908152602001600020549050919050565b606060018054610b4d90613972565b80601f0160208091040260200160405190810160405280929190818152602001828054610b7990613972565b8015610bc65780601f10610b9b57610100808354040283529160200191610bc6565b820191906000526020600020905b815481529060010190602001808311610ba957829003601f168201915b5050505050905090565b610be2610bdb61144f565b8383611a2a565b5050565b6000610bf260076113d5565b90506033600182610c0391906137a7565b10610c43576040517f08c379a0000000000000000000000000000000000000000000000000000000008152600401610c3a906136b3565b60405180910390fd5b6000610c4e82610778565b90506000610c5b83610e4e565b90506000610c6884610fce565b90506000838383604051602001610c819392919061321d565b60405160208183030381529060405290506000610c9d866108b6565b90506000600882600985604051602001610cba949392919061324e565b60405160208183030381529060405290506000610cff84610cda84611b97565b604051602001610ceb9291906132fd565b604051602081830303815290604052611b97565b9050600081604051602001610d149190613364565b6040516020818303038152906040529050610d636040518060400160405280601581526020017f0a2d2d2d2d2d2d2d2d2d2d2d2d2d2d2d2d2d2d2d2d00000000000000000000008152506112d2565b610d8b81604051602001610d779190613297565b6040516020818303038152906040526112d2565b610dc96040518060400160405280601581526020017f2d2d2d2d2d2d2d2d2d2d2d2d2d2d2d2d2d2d2d2d0a00000000000000000000008152506112d2565b610dd3338a611d55565b610ddd8982611d73565b610de76007611de7565b610e0a604051806060016040528060258152602001613b48602591398a33611dfd565b7febb98688741ffa4c7589bf325de30cf7becb63de567842e1ccdb6cb949fdc82c338a604051610e3b92919061340f565b60405180910390a1505050505050505050565b60606000610e82610e5e8461184a565b604051602001610e6e91906132db565b6040516020818303038152906040526119f7565b9050600b8054905081610e9591906139ed565b9050600b8181548110610ed1577f4e487b7100000000000000000000000000000000000000000000000000000000600052603260045260246000fd5b906000526020600020018054610ee690613972565b80601f0160208091040260200160405190810160405280929190818152602001828054610f1290613972565b8015610f5f5780601f10610f3457610100808354040283529160200191610f5f565b820191906000526020600020905b815481529060010190602001808311610f4257829003601f168201915b5050505050915050919050565b610f7d610f7761144f565b83611510565b610fbc576040517f08c379a0000000000000000000000000000000000000000000000000000000008152600401610fb390613693565b60405180910390fd5b610fc884848484611e9c565b50505050565b60606000611002610fde8461184a565b604051602001610fee91906132b9565b6040516020818303038152906040526119f7565b9050600c805490508161101591906139ed565b9050600c8181548110611051577f4e487b7100000000000000000000000000000000000000000000000000000000600052603260045260246000fd5b90600052602060002001805461106690613972565b80601f016020809104026020016040519081016040528092919081815260200182805461109290613972565b80156110df5780601f106110b4576101008083540402835291602001916110df565b820191906000526020600020905b8154815290600101906020018083116110c257829003601f168201915b5050505050915050919050565b60606110f7826113e3565b611136576040517f08c379a000000000000000000000000000000000000000000000000000000000815260040161112d906135f3565b60405180910390fd5b600060066000848152602001908152602001600020805461115690613972565b80601f016020809104026020016040519081016040528092919081815260200182805461118290613972565b80156111cf5780601f106111a4576101008083540402835291602001916111cf565b820191906000526020600020905b8154815290600101906020018083116111b257829003601f168201915b5050505050905060006111e0611ef8565b90506000815114156111f6578192505050611239565b60008251111561122b5780826040516020016112139291906131f9565b60405160208183030381529060405292505050611239565b61123484611f0f565b925050505b919050565b6000600560008473ffffffffffffffffffffffffffffffffffffffff1673ffffffffffffffffffffffffffffffffffffffff16815260200190815260200160002060008373ffffffffffffffffffffffffffffffffffffffff1673ffffffffffffffffffffffffffffffffffffffff16815260200190815260200160002060009054906101000a900460ff16905092915050565b611368816040516024016112e69190613453565b6040516020818303038152906040527f41304fac000000000000000000000000000000000000000000000000000000007bffffffffffffffffffffffffffffffffffffffffffffffffffffffff19166020820180517bffffffffffffffffffffffffffffffffffffffffffffffffffffffff8381831617835250505050611fb6565b50565b60007f01ffc9a7000000000000000000000000000000000000000000000000000000007bffffffffffffffffffffffffffffffffffffffffffffffffffffffff1916827bffffffffffffffffffffffffffffffffffffffffffffffffffffffff1916149050919050565b600081600001549050919050565b60008073ffffffffffffffffffffffffffffffffffffffff166002600084815260200190815260200160002060009054906101000a900473ffffffffffffffffffffffffffffffffffffffff1673ffffffffffffffffffffffffffffffffffffffff1614159050919050565b600033905090565b816004600083815260200190815260200160002060006101000a81548173ffffffffffffffffffffffffffffffffffffffff021916908373ffffffffffffffffffffffffffffffffffffffff160217905550808273ffffffffffffffffffffffffffffffffffffffff166114ca836109d4565b73ffffffffffffffffffffffffffffffffffffffff167f8c5be1e5ebec7d5bd14f71427d1e84f3dd0314c0f7b2291e5b200ac8c7c3b92560405160405180910390a45050565b600061151b826113e3565b61155a576040517f08c379a000000000000000000000000000000000000000000000000000000000815260040161155190613533565b60405180910390fd5b6000611565836109d4565b90508073ffffffffffffffffffffffffffffffffffffffff168473ffffffffffffffffffffffffffffffffffffffff1614806115d457508373ffffffffffffffffffffffffffffffffffffffff166115bc8461057b565b73ffffffffffffffffffffffffffffffffffffffff16145b806115e557506115e4818561123e565b5b91505092915050565b8273ffffffffffffffffffffffffffffffffffffffff1661160e826109d4565b73ffffffffffffffffffffffffffffffffffffffff1614611664576040517f08c379a000000000000000000000000000000000000000000000000000000000815260040161165b90613633565b60405180910390fd5b600073ffffffffffffffffffffffffffffffffffffffff168273ffffffffffffffffffffffffffffffffffffffff1614156116d4576040517f08c379a00000000000000000000000000000000000000000000000000000000081526004016116cb906134f3565b60405180910390fd5b6116df838383611fdf565b6116ea600082611457565b6001600360008573ffffffffffffffffffffffffffffffffffffffff1673ffffffffffffffffffffffffffffffffffffffff168152602001908152602001600020600082825461173a9190613888565b925050819055506001600360008473ffffffffffffffffffffffffffffffffffffffff1673ffffffffffffffffffffffffffffffffffffffff168152602001908152602001600020600082825461179191906137a7565b92505081905550816002600083815260200190815260200160002060006101000a81548173ffffffffffffffffffffffffffffffffffffffff021916908373ffffffffffffffffffffffffffffffffffffffff160217905550808273ffffffffffffffffffffffffffffffffffffffff168473ffffffffffffffffffffffffffffffffffffffff167fddf252ad1be2c89b69c2b068fc378daa952ba7f163c4a11628f55a4df523b3ef60405160405180910390a4505050565b60606000821415611892576040518060400160405280600181526020017f300000000000000000000000000000000000000000000000000000000000000081525090506119f2565b600082905060005b600082146118c45780806118ad906139a4565b915050600a826118bd91906137fd565b915061189a565b60008167ffffffffffffffff811115611906577f4e487b7100000000000000000000000000000000000000000000000000000000600052604160045260246000fd5b6040519080825280601f01601f1916602001820160405280156119385781602001600182028036833780820191505090505b5090505b600085146119eb576001826119519190613888565b9150600a8561196091906139ed565b603061196c91906137a7565b60f81b8183815181106119a8577f4e487b7100000000000000000000000000000000000000000000000000000000600052603260045260246000fd5b60200101907effffffffffffffffffffffffffffffffffffffffffffffffffffffffffffff1916908160001a905350600a856119e491906137fd565b945061193c565b8093505050505b919050565b600081604051602001611a0a91906131e2565b6040516020818303038152906040528051906020012060001c9050919050565b8173ffffffffffffffffffffffffffffffffffffffff168373ffffffffffffffffffffffffffffffffffffffff161415611a99576040517f08c379a0000000000000000000000000000000000000000000000000000000008152600401611a9090613513565b60405180910390fd5b80600560008573ffffffffffffffffffffffffffffffffffffffff1673ffffffffffffffffffffffffffffffffffffffff16815260200190815260200160002060008473ffffffffffffffffffffffffffffffffffffffff1673ffffffffffffffffffffffffffffffffffffffff16815260200190815260200160002060006101000a81548160ff0219169083151502179055508173ffffffffffffffffffffffffffffffffffffffff168373ffffffffffffffffffffffffffffffffffffffff167f17307eab39ab6107e8899845ad3d59bd9653f200f220920489ca2b5937696c3183604051611b8a9190613438565b60405180910390a3505050565b60606000825190506000811415611bc05760405180602001604052806000815250915050611d50565b60006003600283611bd191906137a7565b611bdb91906137fd565b6004611be7919061382e565b90506000602082611bf891906137a7565b67ffffffffffffffff811115611c37577f4e487b7100000000000000000000000000000000000000000000000000000000600052604160045260246000fd5b6040519080825280601f01601f191660200182016040528015611c695781602001600182028036833780820191505090505b5090506000604051806060016040528060408152602001613b6d604091399050600181016020830160005b86811015611d0d5760038101905062ffffff818a015116603f8160121c168401518060081b905060ff603f83600c1c1686015116810190508060081b905060ff603f8360061c1686015116810190508060081b905060ff603f831686015116810190508060e01b90508084526004840193505050611c94565b506003860660018114611d275760028114611d3757611d42565b613d3d60f01b6002830352611d42565b603d60f81b60018303525b508484525050819450505050505b919050565b611d6f828260405180602001604052806000815250611fe4565b5050565b611d7c826113e3565b611dbb576040517f08c379a0000000000000000000000000000000000000000000000000000000008152600401611db2906135b3565b60405180910390fd5b80600660008481526020019081526020016000209080519060200190611de29291906123b7565b505050565b6001816000016000828254019250508190555050565b611e97838383604051602401611e1593929190613475565b6040516020818303038152906040527fe3849f79000000000000000000000000000000000000000000000000000000007bffffffffffffffffffffffffffffffffffffffffffffffffffffffff19166020820180517bffffffffffffffffffffffffffffffffffffffffffffffffffffffff8381831617835250505050611fb6565b505050565b611ea78484846115ee565b611eb38484848461203f565b611ef2576040517f08c379a0000000000000000000000000000000000000000000000000000000008152600401611ee9906134b3565b60405180910390fd5b50505050565b606060405180602001604052806000815250905090565b6060611f1a826113e3565b611f59576040517f08c379a0000000000000000000000000000000000000000000000000000000008152600401611f5090613653565b60405180910390fd5b6000611f63611ef8565b90506000815111611f835760405180602001604052806000815250611fae565b80611f8d8461184a565b604051602001611f9e9291906131f9565b6040516020818303038152906040525b915050919050565b60008151905060006a636f6e736f6c652e6c6f679050602083016000808483855afa5050505050565b505050565b611fee83836121d6565b611ffb600084848461203f565b61203a576040517f08c379a0000000000000000000000000000000000000000000000000000000008152600401612031906134b3565b60405180910390fd5b505050565b60006120608473ffffffffffffffffffffffffffffffffffffffff166123a4565b156121c9578373ffffffffffffffffffffffffffffffffffffffff1663150b7a0261208961144f565b8786866040518563ffffffff1660e01b81526004016120ab94939291906133c3565b602060405180830381600087803b1580156120c557600080fd5b505af19250505080156120f657506040513d601f19601f820116820180604052508101906120f391906126fb565b60015b612179573d8060008114612126576040519150601f19603f3d011682016040523d82523d6000602084013e61212b565b606091505b50600081511415612171576040517f08c379a0000000000000000000000000000000000000000000000000000000008152600401612168906134b3565b60405180910390fd5b805181602001fd5b63150b7a0260e01b7bffffffffffffffffffffffffffffffffffffffffffffffffffffffff1916817bffffffffffffffffffffffffffffffffffffffffffffffffffffffff1916149150506121ce565b600190505b949350505050565b600073ffffffffffffffffffffffffffffffffffffffff168273ffffffffffffffffffffffffffffffffffffffff161415612246576040517f08c379a000000000000000000000000000000000000000000000000000000000815260040161223d906135d3565b60405180910390fd5b61224f816113e3565b1561228f576040517f08c379a0000000000000000000000000000000000000000000000000000000008152600401612286906134d3565b60405180910390fd5b61229b60008383611fdf565b6001600360008473ffffffffffffffffffffffffffffffffffffffff1673ffffffffffffffffffffffffffffffffffffffff16815260200190815260200160002060008282546122eb91906137a7565b92505081905550816002600083815260200190815260200160002060006101000a81548173ffffffffffffffffffffffffffffffffffffffff021916908373ffffffffffffffffffffffffffffffffffffffff160217905550808273ffffffffffffffffffffffffffffffffffffffff16600073ffffffffffffffffffffffffffffffffffffffff167fddf252ad1be2c89b69c2b068fc378daa952ba7f163c4a11628f55a4df523b3ef60405160405180910390a45050565b600080823b905060008111915050919050565b8280546123c390613972565b90600052602060002090601f0160209004810192826123e5576000855561242c565b82601f106123fe57805160ff191683800117855561242c565b8280016001018555821561242c579182015b8281111561242b578251825591602001919060010190612410565b5b509050612439919061243d565b5090565b5b8082111561245657600081600090555060010161243e565b5090565b600061246d6124688461371f565b6136ee565b90508281526020810184848401111561248557600080fd5b612490848285613930565b509392505050565b6000813590506124a781613aeb565b92915050565b6000813590506124bc81613b02565b92915050565b6000813590506124d181613b19565b92915050565b6000815190506124e681613b19565b92915050565b600082601f8301126124fd57600080fd5b813561250d84826020860161245a565b91505092915050565b60008135905061252581613b30565b92915050565b60006020828403121561253d57600080fd5b600061254b84828501612498565b91505092915050565b6000806040838503121561256757600080fd5b600061257585828601612498565b925050602061258685828601612498565b9150509250929050565b6000806000606084860312156125a557600080fd5b60006125b386828701612498565b93505060206125c486828701612498565b92505060406125d586828701612516565b9150509250925092565b600080600080608085870312156125f557600080fd5b600061260387828801612498565b945050602061261487828801612498565b935050604061262587828801612516565b925050606085013567ffffffffffffffff81111561264257600080fd5b61264e878288016124ec565b91505092959194509250565b6000806040838503121561266d57600080fd5b600061267b85828601612498565b925050602061268c858286016124ad565b9150509250929050565b600080604083850312156126a957600080fd5b60006126b785828601612498565b92505060206126c885828601612516565b9150509250929050565b6000602082840312156126e457600080fd5b60006126f2848285016124c2565b91505092915050565b60006020828403121561270d57600080fd5b600061271b848285016124d7565b91505092915050565b60006020828403121561273657600080fd5b600061274484828501612516565b91505092915050565b612756816138bc565b82525050565b612765816138ce565b82525050565b600061277682613764565b612780818561377a565b935061279081856020860161393f565b61279981613ada565b840191505092915050565b60006127af8261376f565b6127b9818561378b565b93506127c981856020860161393f565b6127d281613ada565b840191505092915050565b60006127e88261376f565b6127f2818561379c565b935061280281856020860161393f565b80840191505092915050565b6000815461281b81613972565b612825818661379c565b94506001821660008114612840576001811461285157612884565b60ff19831686528186019350612884565b61285a8561374f565b60005b8381101561287c5781548189015260018201915060208101905061285d565b838801955050505b50505092915050565b600061289a60258361379c565b91507f68747470733a2f2f6e6674707265766965772e30786465762e636f6465732f3f60008301527f636f64653d0000000000000000000000000000000000000000000000000000006020830152602582019050919050565b600061290060328361378b565b91507f4552433732313a207472616e7366657220746f206e6f6e20455243373231526560008301527f63656976657220696d706c656d656e74657200000000000000000000000000006020830152604082019050919050565b6000612966601c8361378b565b91507f4552433732313a20746f6b656e20616c7265616479206d696e746564000000006000830152602082019050919050565b60006129a6600a8361379c565b91507f54484952445f574f5244000000000000000000000000000000000000000000006000830152600a82019050919050565b60006129e660248361378b565b91507f4552433732313a207472616e7366657220746f20746865207a65726f2061646460008301527f72657373000000000000000000000000000000000000000000000000000000006020830152604082019050919050565b6000612a4c60198361378b565b91507f4552433732313a20617070726f766520746f2063616c6c6572000000000000006000830152602082019050919050565b6000612a8c60638361379c565b91507f222c20226465736372697074696f6e223a20224120686967686c79206163636c60008301527f61696d656420636f6c6c656374696f6e206f6620737175617265732e222c202260208301527f696d616765223a2022646174613a696d6167652f7376672b786d6c3b6261736560408301527f36342c00000000000000000000000000000000000000000000000000000000006060830152606382019050919050565b6000612b3e600b8361379c565b91507f5345434f4e445f574f52440000000000000000000000000000000000000000006000830152600b82019050919050565b6000612b7e602c8361378b565b91507f4552433732313a206f70657261746f7220717565727920666f72206e6f6e657860008301527f697374656e7420746f6b656e00000000000000000000000000000000000000006020830152604082019050919050565b6000612be4600d8361379c565b91507f3c2f746578743e3c2f7376673e000000000000000000000000000000000000006000830152600d82019050919050565b6000612c2460388361378b565b91507f4552433732313a20617070726f76652063616c6c6572206973206e6f74206f7760008301527f6e6572206e6f7220617070726f76656420666f7220616c6c00000000000000006020830152604082019050919050565b6000612c8a602a8361378b565b91507f4552433732313a2062616c616e636520717565727920666f7220746865207a6560008301527f726f2061646472657373000000000000000000000000000000000000000000006020830152604082019050919050565b6000612cf060298361378b565b91507f4552433732313a206f776e657220717565727920666f72206e6f6e657869737460008301527f656e7420746f6b656e00000000000000000000000000000000000000000000006020830152604082019050919050565b6000612d56602e8361378b565b91507f45524337323155524953746f726167653a2055524920736574206f66206e6f6e60008301527f6578697374656e7420746f6b656e0000000000000000000000000000000000006020830152604082019050919050565b6000612dbc60028361379c565b91507f227d0000000000000000000000000000000000000000000000000000000000006000830152600282019050919050565b6000612dfc60208361378b565b91507f4552433732313a206d696e7420746f20746865207a65726f20616464726573736000830152602082019050919050565b6000612e3c60318361378b565b91507f45524337323155524953746f726167653a2055524920717565727920666f722060008301527f6e6f6e6578697374656e7420746f6b656e0000000000000000000000000000006020830152604082019050919050565b6000612ea2602c8361378b565b91507f4552433732313a20617070726f76656420717565727920666f72206e6f6e657860008301527f697374656e7420746f6b656e00000000000000000000000000000000000000006020830152604082019050919050565b6000612f0860298361378b565b91507f4552433732313a207472616e73666572206f6620746f6b656e2074686174206960008301527f73206e6f74206f776e00000000000000000000000000000000000000000000006020830152604082019050919050565b6000612f6e602f8361378b565b91507f4552433732314d657461646174613a2055524920717565727920666f72206e6f60008301527f6e6578697374656e7420746f6b656e00000000000000000000000000000000006020830152604082019050919050565b6000612fd4600a8361379c565b91507f7b226e616d65223a2022000000000000000000000000000000000000000000006000830152600a82019050919050565b600061301460218361378b565b91507f4552433732313a20617070726f76616c20746f2063757272656e74206f776e6560008301527f72000000000000000000000000000000000000000000000000000000000000006020830152604082019050919050565b600061307a600a8361379c565b91507f46495253545f574f5244000000000000000000000000000000000000000000006000830152600a82019050919050565b60006130ba601d8361379c565b91507f646174613a6170706c69636174696f6e2f6a736f6e3b6261736536342c0000006000830152601d82019050919050565b60006130fa60318361378b565b91507f4552433732313a207472616e736665722063616c6c6572206973206e6f74206f60008301527f776e6572206e6f7220617070726f7665640000000000000000000000000000006020830152604082019050919050565b600061316060058361379c565b91507f434f4c4f520000000000000000000000000000000000000000000000000000006000830152600582019050919050565b60006131a060158361378b565b91507f4f6e6c792035302063616e206265206d696e74656400000000000000000000006000830152602082019050919050565b6131dc81613926565b82525050565b60006131ee82846127dd565b915081905092915050565b600061320582856127dd565b915061321182846127dd565b91508190509392505050565b600061322982866127dd565b915061323582856127dd565b915061324182846127dd565b9150819050949350505050565b600061325a828761280e565b915061326682866127dd565b9150613272828561280e565b915061327e82846127dd565b915061328982612bd7565b915081905095945050505050565b60006132a28261288d565b91506132ae82846127dd565b915081905092915050565b60006132c482612999565b91506132d082846127dd565b915081905092915050565b60006132e682612b31565b91506132f282846127dd565b915081905092915050565b600061330882612fc7565b915061331482856127dd565b915061331f82612a7f565b915061332b82846127dd565b915061333682612daf565b91508190509392505050565b600061334d8261306d565b915061335982846127dd565b915081905092915050565b600061336f826130ad565b915061337b82846127dd565b915081905092915050565b600061339182613153565b915061339d82846127dd565b915081905092915050565b60006020820190506133bd600083018461274d565b92915050565b60006080820190506133d8600083018761274d565b6133e5602083018661274d565b6133f260408301856131d3565b8181036060830152613404818461276b565b905095945050505050565b6000604082019050613424600083018561274d565b61343160208301846131d3565b9392505050565b600060208201905061344d600083018461275c565b92915050565b6000602082019050818103600083015261346d81846127a4565b905092915050565b6000606082019050818103600083015261348f81866127a4565b905061349e60208301856131d3565b6134ab604083018461274d565b949350505050565b600060208201905081810360008301526134cc816128f3565b9050919050565b600060208201905081810360008301526134ec81612959565b9050919050565b6000602082019050818103600083015261350c816129d9565b9050919050565b6000602082019050818103600083015261352c81612a3f565b9050919050565b6000602082019050818103600083015261354c81612b71565b9050919050565b6000602082019050818103600083015261356c81612c17565b9050919050565b6000602082019050818103600083015261358c81612c7d565b9050919050565b600060208201905081810360008301526135ac81612ce3565b9050919050565b600060208201905081810360008301526135cc81612d49565b9050919050565b600060208201905081810360008301526135ec81612def565b9050919050565b6000602082019050818103600083015261360c81612e2f565b9050919050565b6000602082019050818103600083015261362c81612e95565b9050919050565b6000602082019050818103600083015261364c81612efb565b9050919050565b6000602082019050818103600083015261366c81612f61565b9050919050565b6000602082019050818103600083015261368c81613007565b9050919050565b600060208201905081810360008301526136ac816130ed565b9050919050565b600060208201905081810360008301526136cc81613193565b9050919050565b60006020820190506136e860008301846131d3565b92915050565b6000604051905081810181811067ffffffffffffffff8211171561371557613714613aab565b5b8060405250919050565b600067ffffffffffffffff82111561373a57613739613aab565b5b601f19601f8301169050602081019050919050565b60008190508160005260206000209050919050565b600081519050919050565b600081519050919050565b600082825260208201905092915050565b600082825260208201905092915050565b600081905092915050565b60006137b282613926565b91506137bd83613926565b9250827fffffffffffffffffffffffffffffffffffffffffffffffffffffffffffffffff038211156137f2576137f1613a1e565b5b828201905092915050565b600061380882613926565b915061381383613926565b92508261382357613822613a4d565b5b828204905092915050565b600061383982613926565b915061384483613926565b9250817fffffffffffffffffffffffffffffffffffffffffffffffffffffffffffffffff048311821515161561387d5761387c613a1e565b5b828202905092915050565b600061389382613926565b915061389e83613926565b9250828210156138b1576138b0613a1e565b5b828203905092915050565b60006138c782613906565b9050919050565b60008115159050919050565b60007fffffffff0000000000000000000000000000000000000000000000000000000082169050919050565b600073ffffffffffffffffffffffffffffffffffffffff82169050919050565b6000819050919050565b82818337600083830152505050565b60005b8381101561395d578082015181840152602081019050613942565b8381111561396c576000848401525b50505050565b6000600282049050600182168061398a57607f821691505b6020821081141561399e5761399d613a7c565b5b50919050565b60006139af82613926565b91507fffffffffffffffffffffffffffffffffffffffffffffffffffffffffffffffff8214156139e2576139e1613a1e565b5b600182019050919050565b60006139f882613926565b9150613a0383613926565b925082613a1357613a12613a4d565b5b828206905092915050565b7f4e487b7100000000000000000000000000000000000000000000000000000000600052601160045260246000fd5b7f4e487b7100000000000000000000000000000000000000000000000000000000600052601260045260246000fd5b7f4e487b7100000000000000000000000000000000000000000000000000000000600052602260045260246000fd5b7f4e487b7100000000000000000000000000000000000000000000000000000000600052604160045260246000fd5b6000601f19601f8301169050919050565b613af4816138bc565b8114613aff57600080fd5b50565b613b0b816138ce565b8114613b1657600080fd5b50565b613b22816138da565b8114613b2d57600080fd5b50565b613b3981613926565b8114613b4457600080fd5b5056fe416e204e465420772f20494420257320686173206265656e206d696e74656420746f2025734142434445464748494a4b4c4d4e4f505152535455565758595a6162636465666768696a6b6c6d6e6f707172737475767778797a303132333435363738392b2fa26469706673582212204cf213d65111738bbd54213a3f4b0120d0a94c01ae5330c5719943326a92aacb64736f6c634300080000333c73766720786d6c6e733d27687474703a2f2f7777772e77332e6f72672f323030302f73766727207072657365727665417370656374526174696f3d27784d696e594d696e206d656574272076696577426f783d273020302033353020333530273e3c7374796c653e2e62617365207b2066696c6c3a2077686974653b20666f6e742d66616d696c793a2073657269663b20666f6e742d73697a653a20323470783b207d3c2f7374796c653e3c726563742077696474683d273130302527206865696768743d2731303025272066696c6c3d27272f3e3c7465787420783d273530252720793d273530252720636c6173733d27626173652720646f6d696e616e742d626173656c696e653d276d6964646c652720746578742d616e63686f723d276d6964646c65273e",
    "linkReferences": {},
    "deployedLinkReferences": {}
}